{
  "_format": "hh-sol-artifact-1",
  "contractName": "Counter",
  "sourceName": "contracts/counter.sol",
  "abi": [
    {
      "inputs": [],
      "stateMutability": "nonpayable",
      "type": "constructor"
    },
    {
      "inputs": [],
      "name": "ECDSAInvalidSignature",
      "type": "error"
    },
    {
      "inputs": [
        {
          "internalType": "uint256",
          "name": "length",
          "type": "uint256"
        }
      ],
      "name": "ECDSAInvalidSignatureLength",
      "type": "error"
    },
    {
      "inputs": [
        {
          "internalType": "bytes32",
          "name": "s",
          "type": "bytes32"
        }
      ],
      "name": "ECDSAInvalidSignatureS",
      "type": "error"
    },
    {
      "inputs": [],
      "name": "InvalidShortString",
      "type": "error"
    },
    {
      "inputs": [],
      "name": "SignerNotMessageSender",
      "type": "error"
    },
    {
      "inputs": [],
      "name": "SignerNotOwner",
      "type": "error"
    },
    {
      "inputs": [
        {
          "internalType": "string",
          "name": "str",
          "type": "string"
        }
      ],
      "name": "StringTooLong",
      "type": "error"
    },
    {
      "anonymous": false,
      "inputs": [],
      "name": "EIP712DomainChanged",
      "type": "event"
    },
    {
      "inputs": [
        {
          "components": [
            {
              "internalType": "bytes",
              "name": "data",
              "type": "bytes"
            }
          ],
          "internalType": "struct inEuint32",
          "name": "encryptedValue",
          "type": "tuple"
        }
      ],
      "name": "add",
      "outputs": [],
      "stateMutability": "nonpayable",
      "type": "function"
    },
    {
      "inputs": [],
      "name": "eip712Domain",
      "outputs": [
        {
          "internalType": "bytes1",
          "name": "fields",
          "type": "bytes1"
        },
        {
          "internalType": "string",
          "name": "name",
          "type": "string"
        },
        {
          "internalType": "string",
          "name": "version",
          "type": "string"
        },
        {
          "internalType": "uint256",
          "name": "chainId",
          "type": "uint256"
        },
        {
          "internalType": "address",
          "name": "verifyingContract",
          "type": "address"
        },
        {
          "internalType": "bytes32",
          "name": "salt",
          "type": "bytes32"
        },
        {
          "internalType": "uint256[]",
          "name": "extensions",
          "type": "uint256[]"
        }
      ],
      "stateMutability": "view",
      "type": "function"
    },
    {
      "inputs": [],
      "name": "getCounter",
      "outputs": [
        {
          "internalType": "uint256",
          "name": "",
          "type": "uint256"
        }
      ],
      "stateMutability": "view",
      "type": "function"
    },
    {
      "inputs": [
        {
          "components": [
            {
              "internalType": "bytes32",
              "name": "publicKey",
              "type": "bytes32"
            },
            {
              "internalType": "bytes",
              "name": "signature",
              "type": "bytes"
            }
          ],
          "internalType": "struct Permission",
          "name": "permission",
          "type": "tuple"
        }
      ],
      "name": "getCounterPermit",
      "outputs": [
        {
          "internalType": "uint256",
          "name": "",
          "type": "uint256"
        }
      ],
      "stateMutability": "view",
      "type": "function"
    },
    {
      "inputs": [
        {
          "components": [
            {
              "internalType": "bytes32",
              "name": "publicKey",
              "type": "bytes32"
            },
            {
              "internalType": "bytes",
              "name": "signature",
              "type": "bytes"
            }
          ],
          "internalType": "struct Permission",
          "name": "permission",
          "type": "tuple"
        }
      ],
      "name": "getCounterPermitSealed",
      "outputs": [
        {
          "internalType": "bytes",
          "name": "",
          "type": "bytes"
        }
      ],
      "stateMutability": "view",
      "type": "function"
    },
    {
      "inputs": [],
      "name": "owner",
      "outputs": [
        {
          "internalType": "address",
          "name": "",
          "type": "address"
        }
      ],
      "stateMutability": "view",
      "type": "function"
    }
  ],
  "bytecode": "0x6101606040523480156200001257600080fd5b506040518060400160405280601181526020017f4668656e6978205065726d697373696f6e0000000000000000000000000000008152506040518060400160405280600381526020017f312e300000000000000000000000000000000000000000000000000000000000815250620000956000836200017660201b90919060201c565b6101208181525050620000b36001826200017660201b90919060201c565b6101408181525050818051906020012060e08181525050808051906020012061010081815250504660a08181525050620000f2620001ce60201b60201c565b608081815250503073ffffffffffffffffffffffffffffffffffffffff1660c08173ffffffffffffffffffffffffffffffffffffffff1681525050505033600360006101000a81548173ffffffffffffffffffffffffffffffffffffffff021916908373ffffffffffffffffffffffffffffffffffffffff16021790555062000826565b60006020835110156200019c5762000194836200022b60201b60201c565b9050620001c8565b82620001ae836200029860201b60201c565b6000019081620001bf91906200051c565b5060ff60001b90505b92915050565b60007f8b73c3c69bb8fe3d512ecc4cf759cc79239f7b179b0ffacaa9a75d522b39400f60e0516101005146306040516020016200021095949392919062000674565b60405160208183030381529060405280519060200120905090565b600080829050601f815111156200027b57826040517f305a27a900000000000000000000000000000000000000000000000000000000815260040162000272919062000760565b60405180910390fd5b8051816200028990620007b6565b60001c1760001b915050919050565b6000819050919050565b600081519050919050565b7f4e487b7100000000000000000000000000000000000000000000000000000000600052604160045260246000fd5b7f4e487b7100000000000000000000000000000000000000000000000000000000600052602260045260246000fd5b600060028204905060018216806200032457607f821691505b6020821081036200033a5762000339620002dc565b5b50919050565b60008190508160005260206000209050919050565b60006020601f8301049050919050565b600082821b905092915050565b600060088302620003a47fffffffffffffffffffffffffffffffffffffffffffffffffffffffffffffffff8262000365565b620003b0868362000365565b95508019841693508086168417925050509392505050565b6000819050919050565b6000819050919050565b6000620003fd620003f7620003f184620003c8565b620003d2565b620003c8565b9050919050565b6000819050919050565b6200041983620003dc565b62000431620004288262000404565b84845462000372565b825550505050565b600090565b6200044862000439565b620004558184846200040e565b505050565b5b818110156200047d57620004716000826200043e565b6001810190506200045b565b5050565b601f821115620004cc57620004968162000340565b620004a18462000355565b81016020851015620004b1578190505b620004c9620004c08562000355565b8301826200045a565b50505b505050565b600082821c905092915050565b6000620004f160001984600802620004d1565b1980831691505092915050565b60006200050c8383620004de565b9150826002028217905092915050565b6200052782620002a2565b67ffffffffffffffff811115620005435762000542620002ad565b5b6200054f82546200030b565b6200055c82828562000481565b600060209050601f8311600181146200059457600084156200057f578287015190505b6200058b8582620004fe565b865550620005fb565b601f198416620005a48662000340565b60005b82811015620005ce57848901518255600182019150602085019450602081019050620005a7565b86831015620005ee5784890151620005ea601f891682620004de565b8355505b6001600288020188555050505b505050505050565b6000819050919050565b620006188162000603565b82525050565b6200062981620003c8565b82525050565b600073ffffffffffffffffffffffffffffffffffffffff82169050919050565b60006200065c826200062f565b9050919050565b6200066e816200064f565b82525050565b600060a0820190506200068b60008301886200060d565b6200069a60208301876200060d565b620006a960408301866200060d565b620006b860608301856200061e565b620006c7608083018462000663565b9695505050505050565b600082825260208201905092915050565b60005b8381101562000702578082015181840152602081019050620006e5565b60008484015250505050565b6000601f19601f8301169050919050565b60006200072c82620002a2565b620007388185620006d1565b93506200074a818560208601620006e2565b62000755816200070e565b840191505092915050565b600060208201905081810360008301526200077c81846200071f565b905092915050565b600081519050919050565b6000819050602082019050919050565b6000620007ad825162000603565b80915050919050565b6000620007c38262000784565b82620007cf846200078f565b9050620007dc816200079f565b925060208210156200081f576200081a7fffffffffffffffffffffffffffffffffffffffffffffffffffffffffffffffff8360200360080262000365565b831692505b5050919050565b60805160a05160c05160e05161010051610120516101405161196662000881600039600061057f0152600061054401526000610b8901526000610b68015260006106150152600061066b0152600061069401526119666000f3fe608060405234801561001057600080fd5b50600436106100625760003560e01c80635ef89f331461006757806384b0196e14610097578063859fc542146100bb5780638ada066e146100d75780638da5cb5b146100f5578063ab07a95614610113575b600080fd5b610081600480360381019061007c9190611183565b610143565b60405161008e91906111e5565b60405180910390f35b61009f610231565b6040516100b297969594939291906113c8565b60405180910390f35b6100d560048036038101906100d09190611470565b6102db565b005b6100df610307565b6040516100ec91906111e5565b60405180910390f35b6100fd61031f565b60405161010a91906114b9565b60405180910390f35b61012d60048036038101906101289190611183565b610345565b60405161013a9190611529565b60405180910390f35b600081600061019d7f6bdaeb2d29561f159c7ef98b16b27015fb2aeb87209c7ee656226d912f59927d836000015160405160200161018292919061154b565b60405160208183030381529060405280519060200120610432565b905060006101af82846020015161044c565b90503373ffffffffffffffffffffffffffffffffffffffff168173ffffffffffffffffffffffffffffffffffffffff1614610216576040517f3093a27700000000000000000000000000000000000000000000000000000000815260040160405180910390fd5b610221600254610478565b63ffffffff169350505050919050565b60006060806000806000606061024561053b565b61024d610576565b46306000801b600067ffffffffffffffff81111561026e5761026d610fa7565b5b60405190808252806020026020018201604052801561029c5781602001602082028036833780820191505090505b507f0f00000000000000000000000000000000000000000000000000000000000000959493929190965096509650965096509650965090919293949596565b60006102ef826102ea906115cc565b6105b1565b90506102fd600254826105c7565b6002819055505050565b6000610314600254610478565b63ffffffff16905090565b600360009054906101000a900473ffffffffffffffffffffffffffffffffffffffff1681565b606081600061039f7f6bdaeb2d29561f159c7ef98b16b27015fb2aeb87209c7ee656226d912f59927d836000015160405160200161038492919061154b565b60405160208183030381529060405280519060200120610432565b905060006103b182846020015161044c565b90503373ffffffffffffffffffffffffffffffffffffffff168173ffffffffffffffffffffffffffffffffffffffff1614610418576040517f3093a27700000000000000000000000000000000000000000000000000000000815260040160405180910390fd5b61042860025486600001516105db565b9350505050919050565b600061044561043f610611565b836106c8565b9050919050565b60008060008061045c8686610709565b92509250925061046c8282610765565b82935050505092915050565b6000610483826108c9565b6104945761049160006108d6565b91505b600082905060006104a4826108ea565b90506000608073ffffffffffffffffffffffffffffffffffffffff166373cc01546002846040518363ffffffff1660e01b81526004016104e59291906115fb565b602060405180830381865afa158015610502573d6000803e3d6000fd5b505050506040513d601f19601f820116820180604052508101906105269190611657565b905061053181610947565b9350505050919050565b606061057160007f000000000000000000000000000000000000000000000000000000000000000061095190919063ffffffff16565b905090565b60606105ac60017f000000000000000000000000000000000000000000000000000000000000000061095190919063ffffffff16565b905090565b60006105c08260000151610a01565b9050919050565b60006105d38383610a15565b905092915050565b60606105e6836108c9565b6105f7576105f460006108d6565b92505b600083905061060860028285610a8d565b91505092915050565b60007f000000000000000000000000000000000000000000000000000000000000000073ffffffffffffffffffffffffffffffffffffffff163073ffffffffffffffffffffffffffffffffffffffff1614801561068d57507f000000000000000000000000000000000000000000000000000000000000000046145b156106ba577f000000000000000000000000000000000000000000000000000000000000000090506106c5565b6106c2610b43565b90505b90565b60006040517f190100000000000000000000000000000000000000000000000000000000000081528360028201528260228201526042812091505092915050565b6000806000604184510361074e5760008060006020870151925060408701519150606087015160001a905061074088828585610bd9565b95509550955050505061075e565b60006002855160001b9250925092505b9250925092565b6000600381111561077957610778611684565b5b82600381111561078c5761078b611684565b5b03156108c557600160038111156107a6576107a5611684565b5b8260038111156107b9576107b8611684565b5b036107f0576040517ff645eedf00000000000000000000000000000000000000000000000000000000815260040160405180910390fd5b6002600381111561080457610803611684565b5b82600381111561081757610816611684565b5b0361085c578060001c6040517ffce698f700000000000000000000000000000000000000000000000000000000815260040161085391906111e5565b60405180910390fd5b60038081111561086f5761086e611684565b5b82600381111561088257610881611684565b5b036108c457806040517fd78bce0c0000000000000000000000000000000000000000000000000000000081526004016108bb91906116b3565b60405180910390fd5b5b5050565b6000808214159050919050565b60006108e3826002610ccd565b9050919050565b6060602067ffffffffffffffff81111561090757610906610fa7565b5b6040519080825280601f01601f1916602001820160405280156109395781602001600182028036833780820191505090505b509050816020820152919050565b6000819050919050565b606060ff60001b831461096e5761096783610d6f565b90506109fb565b81805461097a906116fd565b80601f01602080910402602001604051908101604052809291908181526020018280546109a6906116fd565b80156109f35780601f106109c8576101008083540402835291602001916109f3565b820191906000526020600020905b8154815290600101906020018083116109d657829003601f168201915b505050505090505b92915050565b6000610a0e826002610de3565b9050919050565b6000610a20836108c9565b610a3157610a2e60006108d6565b92505b610a3a826108c9565b610a4b57610a4860006108d6565b91505b600083905060008390506000610a7f60028484608073ffffffffffffffffffffffffffffffffffffffff16622df619610e7d565b905080935050505092915050565b6060608073ffffffffffffffffffffffffffffffffffffffff1663a1848ff385610ab6866108ea565b85604051602001610ac7919061174f565b6040516020818303038152906040526040518463ffffffff1660e01b8152600401610af49392919061176a565b600060405180830381865afa158015610b11573d6000803e3d6000fd5b505050506040513d6000823e3d601f19601f82011682018060405250810190610b3a919061181f565b90509392505050565b60007f8b73c3c69bb8fe3d512ecc4cf759cc79239f7b179b0ffacaa9a75d522b39400f7f00000000000000000000000000000000000000000000000000000000000000007f00000000000000000000000000000000000000000000000000000000000000004630604051602001610bbe959493929190611868565b60405160208183030381529060405280519060200120905090565b60008060007f7fffffffffffffffffffffffffffffff5d576e7357a4501ddfe92f46681b20a08460001c1115610c19576000600385925092509250610cc3565b600060018888888860405160008152602001604052604051610c3e94939291906118bb565b6020604051602081039080840390855afa158015610c60573d6000803e3d6000fd5b505050602060405103519050600073ffffffffffffffffffffffffffffffffffffffff168173ffffffffffffffffffffffffffffffffffffffff1603610cb457600060016000801b93509350935050610cc3565b8060008060001b935093509350505b9450945094915050565b60006060608073ffffffffffffffffffffffffffffffffffffffff166319e1c5c4610cf7866108ea565b856040518363ffffffff1660e01b8152600401610d15929190611900565b600060405180830381865afa158015610d32573d6000803e3d6000fd5b505050506040513d6000823e3d601f19601f82011682018060405250810190610d5b919061181f565b9050610d6681610f11565b91505092915050565b60606000610d7c83610f1f565b90506000602067ffffffffffffffff811115610d9b57610d9a610fa7565b5b6040519080825280601f01601f191660200182016040528015610dcd5781602001600182028036833780820191505090505b5090508181528360208201528092505050919050565b60006060608073ffffffffffffffffffffffffffffffffffffffff16635fa55ca784866040518363ffffffff1660e01b8152600401610e239291906115fb565b600060405180830381865afa158015610e40573d6000803e3d6000fd5b505050506040513d6000823e3d601f19601f82011682018060405250810190610e69919061181f565b9050610e7481610f11565b91505092915050565b60006060838388610e8d896108ea565b610e96896108ea565b6040518463ffffffff1660e01b8152600401610eb49392919061176a565b600060405180830381865afa158015610ed1573d6000803e3d6000fd5b505050506040513d6000823e3d601f19601f82011682018060405250810190610efa919061181f565b9050610f0581610f6f565b91505095945050505050565b600060208201519050919050565b60008060ff8360001c169050601f811115610f66576040517fb3512b0c00000000000000000000000000000000000000000000000000000000815260040160405180910390fd5b80915050919050565b600060208201519050919050565b6000604051905090565b600080fd5b600080fd5b600080fd5b6000601f19601f8301169050919050565b7f4e487b7100000000000000000000000000000000000000000000000000000000600052604160045260246000fd5b610fdf82610f96565b810181811067ffffffffffffffff82111715610ffe57610ffd610fa7565b5b80604052505050565b6000611011610f7d565b905061101d8282610fd6565b919050565b600080fd5b6000819050919050565b61103a81611027565b811461104557600080fd5b50565b60008135905061105781611031565b92915050565b600080fd5b600080fd5b600067ffffffffffffffff82111561108257611081610fa7565b5b61108b82610f96565b9050602081019050919050565b82818337600083830152505050565b60006110ba6110b584611067565b611007565b9050828152602081018484840111156110d6576110d5611062565b5b6110e1848285611098565b509392505050565b600082601f8301126110fe576110fd61105d565b5b813561110e8482602086016110a7565b91505092915050565b60006040828403121561112d5761112c610f91565b5b6111376040611007565b9050600061114784828501611048565b600083015250602082013567ffffffffffffffff81111561116b5761116a611022565b5b611177848285016110e9565b60208301525092915050565b60006020828403121561119957611198610f87565b5b600082013567ffffffffffffffff8111156111b7576111b6610f8c565b5b6111c384828501611117565b91505092915050565b6000819050919050565b6111df816111cc565b82525050565b60006020820190506111fa60008301846111d6565b92915050565b60007fff0000000000000000000000000000000000000000000000000000000000000082169050919050565b61123581611200565b82525050565b600081519050919050565b600082825260208201905092915050565b60005b8381101561127557808201518184015260208101905061125a565b60008484015250505050565b600061128c8261123b565b6112968185611246565b93506112a6818560208601611257565b6112af81610f96565b840191505092915050565b600073ffffffffffffffffffffffffffffffffffffffff82169050919050565b60006112e5826112ba565b9050919050565b6112f5816112da565b82525050565b61130481611027565b82525050565b600081519050919050565b600082825260208201905092915050565b6000819050602082019050919050565b61133f816111cc565b82525050565b60006113518383611336565b60208301905092915050565b6000602082019050919050565b60006113758261130a565b61137f8185611315565b935061138a83611326565b8060005b838110156113bb5781516113a28882611345565b97506113ad8361135d565b92505060018101905061138e565b5085935050505092915050565b600060e0820190506113dd600083018a61122c565b81810360208301526113ef8189611281565b905081810360408301526114038188611281565b905061141260608301876111d6565b61141f60808301866112ec565b61142c60a08301856112fb565b81810360c083015261143e818461136a565b905098975050505050505050565b600080fd5b6000602082840312156114675761146661144c565b5b81905092915050565b60006020828403121561148657611485610f87565b5b600082013567ffffffffffffffff8111156114a4576114a3610f8c565b5b6114b084828501611451565b91505092915050565b60006020820190506114ce60008301846112ec565b92915050565b600081519050919050565b600082825260208201905092915050565b60006114fb826114d4565b61150581856114df565b9350611515818560208601611257565b61151e81610f96565b840191505092915050565b6000602082019050818103600083015261154381846114f0565b905092915050565b600060408201905061156060008301856112fb565b61156d60208301846112fb565b9392505050565b60006020828403121561158a57611589610f91565b5b6115946020611007565b9050600082013567ffffffffffffffff8111156115b4576115b3611022565b5b6115c0848285016110e9565b60008301525092915050565b60006115d83683611574565b9050919050565b600060ff82169050919050565b6115f5816115df565b82525050565b600060408201905061161060008301856115ec565b818103602083015261162281846114f0565b90509392505050565b611634816111cc565b811461163f57600080fd5b50565b6000815190506116518161162b565b92915050565b60006020828403121561166d5761166c610f87565b5b600061167b84828501611642565b91505092915050565b7f4e487b7100000000000000000000000000000000000000000000000000000000600052602160045260246000fd5b60006020820190506116c860008301846112fb565b92915050565b7f4e487b7100000000000000000000000000000000000000000000000000000000600052602260045260246000fd5b6000600282049050600182168061171557607f821691505b602082108103611728576117276116ce565b5b50919050565b6000819050919050565b61174961174482611027565b61172e565b82525050565b600061175b8284611738565b60208201915081905092915050565b600060608201905061177f60008301866115ec565b818103602083015261179181856114f0565b905081810360408301526117a581846114f0565b9050949350505050565b60006117c26117bd84611067565b611007565b9050828152602081018484840111156117de576117dd611062565b5b6117e9848285611257565b509392505050565b600082601f8301126118065761180561105d565b5b81516118168482602086016117af565b91505092915050565b60006020828403121561183557611834610f87565b5b600082015167ffffffffffffffff81111561185357611852610f8c565b5b61185f848285016117f1565b91505092915050565b600060a08201905061187d60008301886112fb565b61188a60208301876112fb565b61189760408301866112fb565b6118a460608301856111d6565b6118b160808301846112ec565b9695505050505050565b60006080820190506118d060008301876112fb565b6118dd60208301866115ec565b6118ea60408301856112fb565b6118f760608301846112fb565b95945050505050565b6000604082019050818103600083015261191a81856114f0565b905061192960208301846115ec565b939250505056fea2646970667358221220d375642ca5ce6d714f9c59286f8c484b1352e8e0667195ca085e1c92a412b22a64736f6c63430008140033",
  "linkReferences": {},
  "deployedLinkReferences": {}
}