{
  "_format": "hh-sol-artifact-1",
  "contractName": "FHE",
  "sourceName": "@fhenixprotocol/contracts/FHE.sol",
  "abi": [
    {
      "inputs": [],
      "name": "NIL16",
      "outputs": [
        {
          "internalType": "euint16",
          "name": "",
          "type": "uint256"
        }
      ],
      "stateMutability": "view",
      "type": "function"
    },
    {
      "inputs": [],
      "name": "NIL32",
      "outputs": [
        {
          "internalType": "euint32",
          "name": "",
          "type": "uint256"
        }
      ],
      "stateMutability": "view",
      "type": "function"
    },
    {
      "inputs": [],
      "name": "NIL8",
      "outputs": [
        {
          "internalType": "euint8",
          "name": "",
          "type": "uint256"
        }
      ],
      "stateMutability": "view",
      "type": "function"
    }
  ],
  "bytecode": "0x6101a3610053600b82828239805160001a607314610046577f4e487b7100000000000000000000000000000000000000000000000000000000600052600060045260246000fd5b30600052607381538281f3fe730000000000000000000000000000000000000000301460806040526004361061004b5760003560e01c80639e80b51314610050578063acfc53ee1461006e578063b1c485441461008c575b600080fd5b6100586100aa565b60405161006591906100fe565b60405180910390f35b6100766100af565b6040516100839190610128565b60405180910390f35b6100946100b4565b6040516100a19190610152565b60405180910390f35b600081565b600081565b600081565b6000819050919050565b6000819050919050565b60006100e86100e36100de846100b9565b6100c3565b6100b9565b9050919050565b6100f8816100cd565b82525050565b600060208201905061011360008301846100ef565b92915050565b610122816100cd565b82525050565b600060208201905061013d6000830184610119565b92915050565b61014c816100cd565b82525050565b60006020820190506101676000830184610143565b9291505056fea2646970667358221220765096f2b5aa3dd04191b4666430b103a696a8d16fc8315f45731cb046c4a8bc64736f6c63430008140033",
  "linkReferences": {},
  "deployedLinkReferences": {}
}