{
  "_format": "hh-sol-artifact-1",
  "contractName": "Battleship",
  "sourceName": "contracts/battleship.sol",
  "abi": [
    {
      "inputs": [
        {
          "internalType": "address",
          "name": "_player1",
          "type": "address"
        },
        {
          "internalType": "address",
          "name": "_player2",
          "type": "address"
        }
      ],
      "stateMutability": "nonpayable",
      "type": "constructor"
    },
    {
      "anonymous": false,
      "inputs": [
        {
          "indexed": false,
          "internalType": "uint8",
          "name": "x",
          "type": "uint8"
        },
        {
          "indexed": false,
          "internalType": "uint8",
          "name": "y",
          "type": "uint8"
        },
        {
          "indexed": false,
          "internalType": "address",
          "name": "victim",
          "type": "address"
        },
        {
          "indexed": false,
          "internalType": "bool",
          "name": "hit",
          "type": "bool"
        }
      ],
      "name": "Attack",
      "type": "event"
    },
    {
      "anonymous": false,
      "inputs": [
        {
          "indexed": false,
          "internalType": "address",
          "name": "winner",
          "type": "address"
        }
      ],
      "name": "GameEnded",
      "type": "event"
    },
    {
      "anonymous": false,
      "inputs": [
        {
          "indexed": false,
          "internalType": "string",
          "name": "func",
          "type": "string"
        },
        {
          "indexed": false,
          "internalType": "uint256",
          "name": "gas",
          "type": "uint256"
        }
      ],
      "name": "Log",
      "type": "event"
    },
    {
      "anonymous": false,
      "inputs": [
        {
          "indexed": false,
          "internalType": "string",
          "name": "message",
          "type": "string"
        }
      ],
      "name": "RequiresPassed",
      "type": "event"
    },
    {
      "inputs": [],
      "name": "BOARD_SIZE",
      "outputs": [
        {
          "internalType": "uint8",
          "name": "",
          "type": "uint8"
        }
      ],
      "stateMutability": "view",
      "type": "function"
    },
    {
      "inputs": [
        {
          "internalType": "uint8",
          "name": "_x",
          "type": "uint8"
        },
        {
          "internalType": "uint8",
          "name": "_y",
          "type": "uint8"
        }
      ],
      "name": "attack",
      "outputs": [],
      "stateMutability": "nonpayable",
      "type": "function"
    },
    {
      "inputs": [],
      "name": "currentPlayer",
      "outputs": [
        {
          "internalType": "address",
          "name": "",
          "type": "address"
        }
      ],
      "stateMutability": "view",
      "type": "function"
    },
    {
      "inputs": [],
      "name": "gameEnded",
      "outputs": [
        {
          "internalType": "bool",
          "name": "",
          "type": "bool"
        }
      ],
      "stateMutability": "view",
      "type": "function"
    },
    {
      "inputs": [],
      "name": "gameReady",
      "outputs": [
        {
          "internalType": "bool",
          "name": "",
          "type": "bool"
        }
      ],
      "stateMutability": "view",
      "type": "function"
    },
    {
      "inputs": [
        {
          "internalType": "bytes",
          "name": "encryptedValue",
          "type": "bytes"
        }
      ],
      "name": "placeShips",
      "outputs": [],
      "stateMutability": "nonpayable",
      "type": "function"
    },
    {
      "inputs": [],
      "name": "player1",
      "outputs": [
        {
          "internalType": "address",
          "name": "",
          "type": "address"
        }
      ],
      "stateMutability": "view",
      "type": "function"
    },
    {
      "inputs": [
        {
          "internalType": "uint256",
          "name": "",
          "type": "uint256"
        },
        {
          "internalType": "uint256",
          "name": "",
          "type": "uint256"
        }
      ],
      "name": "player1Board",
      "outputs": [
        {
          "internalType": "euint8",
          "name": "",
          "type": "uint256"
        }
      ],
      "stateMutability": "view",
      "type": "function"
    },
    {
      "inputs": [],
      "name": "player1Ready",
      "outputs": [
        {
          "internalType": "bool",
          "name": "",
          "type": "bool"
        }
      ],
      "stateMutability": "view",
      "type": "function"
    },
    {
      "inputs": [],
      "name": "player1ShipsHit",
      "outputs": [
        {
          "internalType": "uint8",
          "name": "",
          "type": "uint8"
        }
      ],
      "stateMutability": "view",
      "type": "function"
    },
    {
      "inputs": [],
      "name": "player2",
      "outputs": [
        {
          "internalType": "address",
          "name": "",
          "type": "address"
        }
      ],
      "stateMutability": "view",
      "type": "function"
    },
    {
      "inputs": [
        {
          "internalType": "uint256",
          "name": "",
          "type": "uint256"
        },
        {
          "internalType": "uint256",
          "name": "",
          "type": "uint256"
        }
      ],
      "name": "player2Board",
      "outputs": [
        {
          "internalType": "euint8",
          "name": "",
          "type": "uint256"
        }
      ],
      "stateMutability": "view",
      "type": "function"
    },
    {
      "inputs": [],
      "name": "player2Ready",
      "outputs": [
        {
          "internalType": "bool",
          "name": "",
          "type": "bool"
        }
      ],
      "stateMutability": "view",
      "type": "function"
    },
    {
      "inputs": [],
      "name": "player2ShipsHit",
      "outputs": [
        {
          "internalType": "uint8",
          "name": "",
          "type": "uint8"
        }
      ],
      "stateMutability": "view",
      "type": "function"
    },
    {
      "inputs": [],
      "name": "winner",
      "outputs": [
        {
          "internalType": "address",
          "name": "",
          "type": "address"
        }
      ],
      "stateMutability": "view",
      "type": "function"
    }
  ],
  "bytecode": "0x60806040523480156200001157600080fd5b50604051620025753803806200257583398181016040528101906200003791906200018b565b816000806101000a81548173ffffffffffffffffffffffffffffffffffffffff021916908373ffffffffffffffffffffffffffffffffffffffff16021790555080600160006101000a81548173ffffffffffffffffffffffffffffffffffffffff021916908373ffffffffffffffffffffffffffffffffffffffff16021790555060008054906101000a900473ffffffffffffffffffffffffffffffffffffffff16600260006101000a81548173ffffffffffffffffffffffffffffffffffffffff021916908373ffffffffffffffffffffffffffffffffffffffff1602179055505050620001d2565b600080fd5b600073ffffffffffffffffffffffffffffffffffffffff82169050919050565b6000620001538262000126565b9050919050565b620001658162000146565b81146200017157600080fd5b50565b60008151905062000185816200015a565b92915050565b60008060408385031215620001a557620001a462000121565b5b6000620001b58582860162000174565b9250506020620001c88582860162000174565b9150509250929050565b61239380620001e26000396000f3fe608060405234801561001057600080fd5b50600436106100f55760003560e01c806395b2b67211610097578063dc4a3e9511610066578063dc4a3e9514610252578063dfbf53ae14610270578063ef8568971461028e578063fbd4cc15146102ac576100f5565b806395b2b672146101da578063b63d13c1146101f8578063d30895e414610216578063db57ab1b14610234576100f5565b80634da1b640116100d35780634da1b6401461015257806359a5f12d14610182578063808984ba146101a0578063916aa802146101bc576100f5565b80632f6fe396146100fa57806342cea213146101185780634404a43814610134575b600080fd5b6101026102dc565b60405161010f91906116d5565b60405180910390f35b610132600480360381019061012d9190611769565b6102ef565b005b61013c6106d0565b60405161014991906117f7565b60405180910390f35b61016c60048036038101906101679190611848565b6106f6565b60405161017991906118c3565b60405180910390f35b61018a610724565b60405161019791906117f7565b60405180910390f35b6101ba60048036038101906101b59190611917565b61074a565b005b6101c461104d565b6040516101d191906116d5565b60405180910390f35b6101e2611060565b6040516101ef91906116d5565b60405180910390f35b610200611073565b60405161020d91906116d5565b60405180910390f35b61021e611086565b60405161022b91906117f7565b60405180910390f35b61023c6110aa565b6040516102499190611966565b60405180910390f35b61025a6110bd565b6040516102679190611966565b60405180910390f35b6102786110c2565b60405161028591906117f7565b60405180910390f35b6102966110e8565b6040516102a39190611966565b60405180910390f35b6102c660048036038101906102c19190611848565b6110fb565b6040516102d391906118c3565b60405180910390f35b600360149054906101000a900460ff1681565b60008054906101000a900473ffffffffffffffffffffffffffffffffffffffff1673ffffffffffffffffffffffffffffffffffffffff163373ffffffffffffffffffffffffffffffffffffffff1614806103965750600160009054906101000a900473ffffffffffffffffffffffffffffffffffffffff1673ffffffffffffffffffffffffffffffffffffffff163373ffffffffffffffffffffffffffffffffffffffff16145b6103d5576040517f08c379a00000000000000000000000000000000000000000000000000000000081526004016103cc90611a04565b60405180910390fd5b600360149054906101000a900460ff1615610425576040517f08c379a000000000000000000000000000000000000000000000000000000000815260040161041c90611a70565b60405180910390fd5b600360159054906101000a900460ff1615610475576040517f08c379a000000000000000000000000000000000000000000000000000000000815260040161046c90611adc565b60405180910390fd5b60006104c483838080601f016020809104026020016040519081016040528093929190818152602001838380828437600081840152601f19601f82011690508083019250505050505050611129565b905060008060009054906101000a900473ffffffffffffffffffffffffffffffffffffffff1673ffffffffffffffffffffffffffffffffffffffff163373ffffffffffffffffffffffffffffffffffffffff1603610525576004905061052a565b601490505b6000610536600061113d565b905060006105446001611151565b905060005b6004806105569190611b2b565b60ff168110156105ef57600061057461056f8785611165565b6111de565b90508085600460ff16846105889190611b97565b6004811061059957610598611bc8565b5b60040201600460ff16846105ad9190611bf7565b600481106105be576105bd611bc8565b5b01819055506105cd84826111f4565b93506105d9868461126c565b95505080806105e790611c28565b915050610549565b5060008054906101000a900473ffffffffffffffffffffffffffffffffffffffff1673ffffffffffffffffffffffffffffffffffffffff163373ffffffffffffffffffffffffffffffffffffffff1603610663576001600360166101000a81548160ff02191690831515021790555061067f565b6001600360176101000a81548160ff0219169083151502179055505b600360179054906101000a900460ff1680156106a75750600360169054906101000a900460ff165b156106c8576001600360156101000a81548160ff0219169083151502179055505b505050505050565b600260009054906101000a900473ffffffffffffffffffffffffffffffffffffffff1681565b6014826004811061070657600080fd5b60040201816004811061071857600080fd5b01600091509150505481565b600160009054906101000a900473ffffffffffffffffffffffffffffffffffffffff1681565b60008054906101000a900473ffffffffffffffffffffffffffffffffffffffff1673ffffffffffffffffffffffffffffffffffffffff163373ffffffffffffffffffffffffffffffffffffffff1614806107f15750600160009054906101000a900473ffffffffffffffffffffffffffffffffffffffff1673ffffffffffffffffffffffffffffffffffffffff163373ffffffffffffffffffffffffffffffffffffffff16145b610830576040517f08c379a000000000000000000000000000000000000000000000000000000000815260040161082790611a04565b60405180910390fd5b600360159054906101000a900460ff1661087f576040517f08c379a000000000000000000000000000000000000000000000000000000000815260040161087690611cbc565b60405180910390fd5b600360149054906101000a900460ff16156108cf576040517f08c379a00000000000000000000000000000000000000000000000000000000081526004016108c690611a70565b60405180910390fd5b600260009054906101000a900473ffffffffffffffffffffffffffffffffffffffff1673ffffffffffffffffffffffffffffffffffffffff163373ffffffffffffffffffffffffffffffffffffffff161461095f576040517f08c379a000000000000000000000000000000000000000000000000000000000815260040161095690611d28565b60405180910390fd5b7fba8645338ab8a0c39deee36b89127fad79f23550eb5665a9f50662e02e65752760405161098c90611d94565b60405180910390a160008060009054906101000a900473ffffffffffffffffffffffffffffffffffffffff1673ffffffffffffffffffffffffffffffffffffffff163373ffffffffffffffffffffffffffffffffffffffff16036109f357601490506109f8565b600490505b7fba8645338ab8a0c39deee36b89127fad79f23550eb5665a9f50662e02e657527604051610a2590611e00565b60405180910390a16000610a68828560ff1660048110610a4857610a47611bc8565b5b600402018460ff1660048110610a6157610a60611bc8565b5b01546112e5565b905060028160ff1610610ab0576040517f08c379a0000000000000000000000000000000000000000000000000000000008152600401610aa790611e6c565b60405180910390fd5b60018160ff1603610d135760008054906101000a900473ffffffffffffffffffffffffffffffffffffffff1673ffffffffffffffffffffffffffffffffffffffff163373ffffffffffffffffffffffffffffffffffffffff1603610bab576003601981819054906101000a900460ff1680929190610b2d90611e8c565b91906101000a81548160ff021916908360ff160217905550507fc02985e452d459908529fa04dc1f43c766dac5974d48f27041221b6d1858f8be8484600160009054906101000a900473ffffffffffffffffffffffffffffffffffffffff166001604051610b9e9493929190611eb5565b60405180910390a1610c42565b6003601881819054906101000a900460ff1680929190610bca90611e8c565b91906101000a81548160ff021916908360ff160217905550507fc02985e452d459908529fa04dc1f43c766dac5974d48f27041221b6d1858f8be848460008054906101000a900473ffffffffffffffffffffffffffffffffffffffff166001604051610c399493929190611eb5565b60405180910390a15b6004600360189054906101000a900460ff1660ff161480610c7557506004600360199054906101000a900460ff1660ff16145b15610d0e576001600360146101000a81548160ff02191690831515021790555033600360006101000a81548173ffffffffffffffffffffffffffffffffffffffff021916908373ffffffffffffffffffffffffffffffffffffffff1602179055507f51b77d00d3c0b7e376e9ee146711ceb2c08e58a5dbe38055a618e52109f720c133604051610d0591906117f7565b60405180910390a15b610e2b565b60008054906101000a900473ffffffffffffffffffffffffffffffffffffffff1673ffffffffffffffffffffffffffffffffffffffff163373ffffffffffffffffffffffffffffffffffffffff1603610dcb577fc02985e452d459908529fa04dc1f43c766dac5974d48f27041221b6d1858f8be8484600160009054906101000a900473ffffffffffffffffffffffffffffffffffffffff166000604051610dbe9493929190611eb5565b60405180910390a1610e2a565b7fc02985e452d459908529fa04dc1f43c766dac5974d48f27041221b6d1858f8be848460008054906101000a900473ffffffffffffffffffffffffffffffffffffffff166000604051610e219493929190611eb5565b60405180910390a15b5b7fba8645338ab8a0c39deee36b89127fad79f23550eb5665a9f50662e02e657527604051610e5890611f46565b60405180910390a1610e6a600261113d565b828560ff1660048110610e8057610e7f611bc8565b5b600402018460ff1660048110610e9957610e98611bc8565b5b01819055507fba8645338ab8a0c39deee36b89127fad79f23550eb5665a9f50662e02e657527604051610ecb90611fb2565b60405180910390a160008054906101000a900473ffffffffffffffffffffffffffffffffffffffff1673ffffffffffffffffffffffffffffffffffffffff16600260009054906101000a900473ffffffffffffffffffffffffffffffffffffffff1673ffffffffffffffffffffffffffffffffffffffff1603610fb057600160009054906101000a900473ffffffffffffffffffffffffffffffffffffffff16600260006101000a81548173ffffffffffffffffffffffffffffffffffffffff021916908373ffffffffffffffffffffffffffffffffffffffff160217905550611012565b60008054906101000a900473ffffffffffffffffffffffffffffffffffffffff16600260006101000a81548173ffffffffffffffffffffffffffffffffffffffff021916908373ffffffffffffffffffffffffffffffffffffffff1602179055505b7fba8645338ab8a0c39deee36b89127fad79f23550eb5665a9f50662e02e65752760405161103f9061201e565b60405180910390a150505050565b600360159054906101000a900460ff1681565b600360169054906101000a900460ff1681565b600360179054906101000a900460ff1681565b60008054906101000a900473ffffffffffffffffffffffffffffffffffffffff1681565b600360199054906101000a900460ff1681565b600481565b600360009054906101000a900473ffffffffffffffffffffffffffffffffffffffff1681565b600360189054906101000a900460ff1681565b6004826004811061110b57600080fd5b60040201816004811061111d57600080fd5b01600091509150505481565b60006111368260026113a8565b9050919050565b600061114a826000611442565b9050919050565b600061115e826002611442565b9050919050565b6000611170836114e4565b6111815761117e6000611151565b92505b61118a826114e4565b61119b576111986000611151565b91505b6000839050600083905060006111d060028484608073ffffffffffffffffffffffffffffffffffffffff1663ae104cfd6114f1565b905080935050505092915050565b60006111ed6002836000611585565b9050919050565b60006111ff8361162a565b6112105761120d600061113d565b92505b6112198261162a565b61122a57611227600061113d565b91505b60008390506000839050600061125e60008484608073ffffffffffffffffffffffffffffffffffffffff16622df6196114f1565b905080935050505092915050565b6000611277836114e4565b611288576112856000611151565b92505b611291826114e4565b6112a25761129f6000611151565b91505b6000839050600083905060006112d760028484608073ffffffffffffffffffffffffffffffffffffffff16639944d12d6114f1565b905080935050505092915050565b60006112f08261162a565b611301576112fe600061113d565b91505b6000829050600061131182611637565b90506000608073ffffffffffffffffffffffffffffffffffffffff166373cc01546000846040518363ffffffff1660e01b81526004016113529291906120ce565b602060405180830381865afa15801561136f573d6000803e3d6000fd5b505050506040513d601f19601f820116820180604052508101906113939190612113565b905061139e81611694565b9350505050919050565b60006060608073ffffffffffffffffffffffffffffffffffffffff16635fa55ca784866040518363ffffffff1660e01b81526004016113e89291906120ce565b600060405180830381865afa158015611405573d6000803e3d6000fd5b505050506040513d6000823e3d601f19601f8201168201806040525081019061142e9190612261565b90506114398161169e565b91505092915050565b60006060608073ffffffffffffffffffffffffffffffffffffffff166319e1c5c461146c86611637565b856040518363ffffffff1660e01b815260040161148a9291906122aa565b600060405180830381865afa1580156114a7573d6000803e3d6000fd5b505050506040513d6000823e3d601f19601f820116820180604052508101906114d09190612261565b90506114db8161169e565b91505092915050565b6000808214159050919050565b6000606083838861150189611637565b61150a89611637565b6040518463ffffffff1660e01b8152600401611528939291906122da565b600060405180830381865afa158015611545573d6000803e3d6000fd5b505050506040513d6000823e3d601f19601f8201168201806040525081019061156e9190612261565b9050611579816116ac565b91505095945050505050565b60006060608073ffffffffffffffffffffffffffffffffffffffff16634a5a1117866115b087611637565b866040518463ffffffff1660e01b81526004016115cf9392919061231f565b600060405180830381865afa1580156115ec573d6000803e3d6000fd5b505050506040513d6000823e3d601f19601f820116820180604052508101906116159190612261565b90506116208161169e565b9150509392505050565b6000808214159050919050565b6060602067ffffffffffffffff81111561165457611653612145565b5b6040519080825280601f01601f1916602001820160405280156116865781602001600182028036833780820191505090505b509050816020820152919050565b6000819050919050565b600060208201519050919050565b600060208201519050919050565b60008115159050919050565b6116cf816116ba565b82525050565b60006020820190506116ea60008301846116c6565b92915050565b6000604051905090565b600080fd5b600080fd5b600080fd5b600080fd5b600080fd5b60008083601f84011261172957611728611704565b5b8235905067ffffffffffffffff81111561174657611745611709565b5b6020830191508360018202830111156117625761176161170e565b5b9250929050565b600080602083850312156117805761177f6116fa565b5b600083013567ffffffffffffffff81111561179e5761179d6116ff565b5b6117aa85828601611713565b92509250509250929050565b600073ffffffffffffffffffffffffffffffffffffffff82169050919050565b60006117e1826117b6565b9050919050565b6117f1816117d6565b82525050565b600060208201905061180c60008301846117e8565b92915050565b6000819050919050565b61182581611812565b811461183057600080fd5b50565b6000813590506118428161181c565b92915050565b6000806040838503121561185f5761185e6116fa565b5b600061186d85828601611833565b925050602061187e85828601611833565b9150509250929050565b6000819050919050565b60006118ad6118a86118a384611812565b611888565b611812565b9050919050565b6118bd81611892565b82525050565b60006020820190506118d860008301846118b4565b92915050565b600060ff82169050919050565b6118f4816118de565b81146118ff57600080fd5b50565b600081359050611911816118eb565b92915050565b6000806040838503121561192e5761192d6116fa565b5b600061193c85828601611902565b925050602061194d85828601611902565b9150509250929050565b611960816118de565b82525050565b600060208201905061197b6000830184611957565b92915050565b600082825260208201905092915050565b7f4f6e6c7920706c61796572732063616e2063616c6c20746869732066756e637460008201527f696f6e0000000000000000000000000000000000000000000000000000000000602082015250565b60006119ee602383611981565b91506119f982611992565b604082019050919050565b60006020820190508181036000830152611a1d816119e1565b9050919050565b7f47616d652068617320656e646564000000000000000000000000000000000000600082015250565b6000611a5a600e83611981565b9150611a6582611a24565b602082019050919050565b60006020820190508181036000830152611a8981611a4d565b9050919050565b7f426f6172647320616c7265616479207365740000000000000000000000000000600082015250565b6000611ac6601283611981565b9150611ad182611a90565b602082019050919050565b60006020820190508181036000830152611af581611ab9565b9050919050565b7f4e487b7100000000000000000000000000000000000000000000000000000000600052601160045260246000fd5b6000611b36826118de565b9150611b41836118de565b9250828202611b4f816118de565b9150808214611b6157611b60611afc565b5b5092915050565b7f4e487b7100000000000000000000000000000000000000000000000000000000600052601260045260246000fd5b6000611ba282611812565b9150611bad83611812565b925082611bbd57611bbc611b68565b5b828204905092915050565b7f4e487b7100000000000000000000000000000000000000000000000000000000600052603260045260246000fd5b6000611c0282611812565b9150611c0d83611812565b925082611c1d57611c1c611b68565b5b828206905092915050565b6000611c3382611812565b91507fffffffffffffffffffffffffffffffffffffffffffffffffffffffffffffffff8203611c6557611c64611afc565b5b600182019050919050565b7f47616d65206e6f74207265616479000000000000000000000000000000000000600082015250565b6000611ca6600e83611981565b9150611cb182611c70565b602082019050919050565b60006020820190508181036000830152611cd581611c99565b9050919050565b7f4e6f7420796f7572207475726e00000000000000000000000000000000000000600082015250565b6000611d12600d83611981565b9150611d1d82611cdc565b602082019050919050565b60006020820190508181036000830152611d4181611d05565b9050919050565b7f5245515549524553205041535345440000000000000000000000000000000000600082015250565b6000611d7e600f83611981565b9150611d8982611d48565b602082019050919050565b60006020820190508181036000830152611dad81611d71565b9050919050565b7f426f61726420696e697465640000000000000000000000000000000000000000600082015250565b6000611dea600c83611981565b9150611df582611db4565b602082019050919050565b60006020820190508181036000830152611e1981611ddd565b9050919050565b7f416c72656164792061747461636b656420746869732063656c6c000000000000600082015250565b6000611e56601a83611981565b9150611e6182611e20565b602082019050919050565b60006020820190508181036000830152611e8581611e49565b9050919050565b6000611e97826118de565b915060ff8203611eaa57611ea9611afc565b5b600182019050919050565b6000608082019050611eca6000830187611957565b611ed76020830186611957565b611ee460408301856117e8565b611ef160608301846116c6565b95945050505050565b7f436f6e646974696f6e616c20697320636f6d706c657465000000000000000000600082015250565b6000611f30601783611981565b9150611f3b82611efa565b602082019050919050565b60006020820190508181036000830152611f5f81611f23565b9050919050565b7f426f617264207570646174656400000000000000000000000000000000000000600082015250565b6000611f9c600d83611981565b9150611fa782611f66565b602082019050919050565b60006020820190508181036000830152611fcb81611f8f565b9050919050565b7f506c617965722075706461746564000000000000000000000000000000000000600082015250565b6000612008600e83611981565b915061201382611fd2565b602082019050919050565b6000602082019050818103600083015261203781611ffb565b9050919050565b600081519050919050565b600082825260208201905092915050565b60005b8381101561207857808201518184015260208101905061205d565b60008484015250505050565b6000601f19601f8301169050919050565b60006120a08261203e565b6120aa8185612049565b93506120ba81856020860161205a565b6120c381612084565b840191505092915050565b60006040820190506120e36000830185611957565b81810360208301526120f58184612095565b90509392505050565b60008151905061210d8161181c565b92915050565b600060208284031215612129576121286116fa565b5b6000612137848285016120fe565b91505092915050565b600080fd5b7f4e487b7100000000000000000000000000000000000000000000000000000000600052604160045260246000fd5b61217d82612084565b810181811067ffffffffffffffff8211171561219c5761219b612145565b5b80604052505050565b60006121af6116f0565b90506121bb8282612174565b919050565b600067ffffffffffffffff8211156121db576121da612145565b5b6121e482612084565b9050602081019050919050565b60006122046121ff846121c0565b6121a5565b9050828152602081018484840111156122205761221f612140565b5b61222b84828561205a565b509392505050565b600082601f83011261224857612247611704565b5b81516122588482602086016121f1565b91505092915050565b600060208284031215612277576122766116fa565b5b600082015167ffffffffffffffff811115612295576122946116ff565b5b6122a184828501612233565b91505092915050565b600060408201905081810360008301526122c48185612095565b90506122d36020830184611957565b9392505050565b60006060820190506122ef6000830186611957565b81810360208301526123018185612095565b905081810360408301526123158184612095565b9050949350505050565b60006060820190506123346000830186611957565b81810360208301526123468185612095565b90506123556040830184611957565b94935050505056fea264697066735822122029ed44961cd84f416d90a3b237d03208894571b50dba7d9ec4bce44ee5217d0264736f6c63430008140033",
  "linkReferences": {},
  "deployedLinkReferences": {}
}